:020000040000FA
:0400000080311E2805
:100008007E1480314E01961A8C1E0E288531A0254B
:1000180080311C280B1F1C2899188F1C1728853124
:10002800EC2580311C2819180F1C1C288031412010
:100038007E100900803120288531EF258031E300CA
:100048008531F0258031E400F001F101F201F3017E
:10005800F401F50142308400003085001F308531FD
:10006800D0258031A03084000030850020308531D3
:10007800D0257E1040018431E12C4E010F10430140
:10008800901F53299013F3017008023E86008701E0
:100098000108860087018101810AF00108004001FA
:1000A800C41808004308F8007808F00043088600E0
:1000B80087010108F8007808F200430886008701E4
:1000C800413FF1000330F8007808C3074308613A5C
:1000D800031D72285E30F8007808C30044104308F6
:1000E80042060319C414430111140230F8007808B9
:1000F800F30008000129111F8A280130F800780848
:100108004001C60704308431F92408007508F90055
:100118007408F800F936F80C78088C00741C9928D3
:100128000B30F8007808F30008000330F80078086E
:10013800F3000800111FA9280130F80078084001D1
:10014800C60704308431F924080091147508F900B1
:100158007408F8007908F800F90106307805FA0003
:1001680000307905FB00F0307A04F40000307B049D
:10017800F50074144001D301D30A792840015303D0
:100188000319D728710886008701403FF400413FD2
:10019800F500710886008701433FD5007108860085
:1001A8008701423FD400740843018C00741C9928CD
:1001B8000530F8007808F3000800111FEE28013018
:1001C800F80078084001C60743011113053084314F
:1001D800F924080001304001D402540A031D032900
:1001E8000430F8007808F1070130F202031D0029F5
:1001F80000308431F9240800430191147928550806
:1002080086008701010843018C000130F800780856
:100218004001D5070800111F1C290130F800780893
:100228004001C60704308431F92443011113080042
:1002380091150830F8007808F30008000830F80035
:100248007808F300911508000C08F80040015508DB
:1002580086008701780881000130F8007808D50702
:100268000130D40203193F29430191120630F800E6
:100278007808F3004329430191168531732543011A
:100288001116080000308431F92408000130F80004
:1002980078084001C60706308431F924080073083D
:1002A800F800F9017908003A03195B294A29780806
:1002B800003A03195328013A03197E28033A03190F
:1002C800C228013A0319E128073A03194629013AD5
:1002D80003190F29033A03192229013A0319462958
:1002E8000F3A03192829023A03197F28013A0319FA
:1002F8009E284A2908008531DC25813140012108E2
:10030800A7002008A6004D082602A2004E08273B99
:10031800A300003023020A3003192202031C08003C
:100328002708CE002608CD00A5012508A200023026
:10033800A235FF3E031D9C292235A03EA3002308B9
:10034800A800280886008701403FA200413FA3007B
:1003580022088600230887000130A4002808023EEE
:1003680084008501000AB929A435890BB829240815
:100378000105031DC6292808033E8600870181015F
:10038800810ACB292808033E8600870181012808B5
:10039800033E860087010108031DF6292808043E4C
:1003A800860087010103031DF6292808063E8600FA
:1003B8008701403F2602A200413F273BA3000130AE
:1003C8002302F430031922020318F1292808053EF4
:1003D800860087018101810AF6292808053E8600E2
:1003E800870181012808033E860087010103031D58
:1003F8000C2A2808043E860087010108031D0C2AE0
:100408002808063E860087012608C03F2708C13F06
:100418002808063E86008701403F2602A200413F89
:10042800273BA30001302302F53003192202031CE5
:100438002C2A2808033E860087010103031D2C2A65
:100448000230A2002808053E8600870122088100A4
:100458002808033E860087010108A2002808043EF8
:1004680086008701220881000130A2002208A50722
:1004780004302502031808009929003482342134F5
:100488000034003400340034023439340F3400347A
:10049800003400344034803400343F3406345B3454
:1004A8004F3466346D347D3407347F346F34003410
:1004B80000340034483400345334003477347C3406
:1004C80039345E34793471346F34763406341E34FA
:1004D80000343834003454343F347334673450347F
:1004E8006D3478343E340034003400346E340034D3
:1004F800393400340F340034083463345F347C34C6
:1005080058345E347B3471346F34743402341E349E
:1005180000340634003454345C3473346734503453
:100528006D3478341C340034003400346E340034B4
:10053800393430340F34003400344001A3004418F7
:10054800D52A0230A20021088600870122088100EE
:100558002008A200420A8600870122088100230899
:10056800A200420886008701220881002108A20013
:100578004208023E86008701220881000330A2005B
:100588002208C2074208613A031DCE2A5E30A20043
:100598002208C200C41043084206031DDA2A441484
:1005A800DA2A2108860087018101810A210886004C
:1005B800870102300106031D08008531E8254E0138
:1005C8000F1408008531DC25823140012108C10063
:1005D8002008C00049084002BE004A08413BBF004D
:1005E80000303F02193003193E02031C080041087D
:1005F800CA004008C900520885314F258231003AA7
:100608000319092B8531102508004001510885314F
:100618004F258231003A0319142B8531262508000D
:1006280040015208853192258231003A031D062B7C
:1006380040015108853192258231003A031908009A
:10064800112BA0304001A5002508CF00A830A50037
:100658002508D200B030A5002508D100B830A50083
:100668002508D0000E30A0000030A1000230A500FF
:100678002508A2004F088431AC2483310C30400196
:10068800A0000030A1000230A5002508A2005008F3
:100698008431AC2483310E304001A0000030A10029
:1006A800A20151088431AC2483310E304001A000EE
:1006B8000030A100A201A20A52088431AC2408002B
:1006C8004001C701C8010330BC000030BD000A303A
:1006D800A0000030A1003808A3003708A200833129
:1006E800D123833140012108BB002008BA003A0811
:1006F800303EB9003908B4003C08853161258331A2
:100708000A304001A0000030A1003808A3003708D3
:10071800A20083319C23833140012108B8002008BE
:10072800B700FF30BC07FF30BD3DBD1B08006B2B79
:100738004001A601A701200821040319CC2BA5011B
:10074800A50AA11BB12B0130A035A10D890BA82B3F
:100758000130A4002408A507A52B0130A635A70D54
:10076800890BB22B21082302031DBC2B200822026F
:10077800031CC32B2008A2022108A33B2614013026
:10078800A136A00C890BC42B0130A502031DB12B87
:100798002708A1002608A00008004001200821041D
:1007A8000319F92BA501A50AA11BE42B0130A035DB
:1007B800A10D890BDB2B0130A4002408A507D82B39
:1007C80021082302031DEA2B20082202031CF02B18
:1007D8002008A2022108A33B0130A136A00C890BF6
:1007E800F12B0130A502031DE42B2308A1002208E8
:1007F800A00008004001980199019A013F30920039
:10080800F0309300FF309400F8307E01CE00F030D5
:10081800C3000330B800C4010430B9000730CF006A
:10082800BA01C501D0013730BB00F030C600FF3037
:10083800D10005307D01C50014307E0194001330CD
:10084800950004307D01C60008004001AD00441841
:100858004A2C2D08AB002B08A0002708AC002C0858
:10086800A1002908A3002808A2005A308431502486
:1008780084315A304001AB002B08A0002A08AC0094
:100888002C08A10001308231A12208002A08860024
:1008980087018101810A08004001A6002308A500FC
:1008A8002208A400A435A50D26088600870124087F
:1008B800C03F2508C13F2108A4002608023E860043
:1008C8008701240881002008A4002608033E86002A
:1008D80087012408810008004001AE01AE0A2430D7
:1008E80084318F2484314001AE01343084318F2427
:1008F80084314001AE01353084318F248431400188
:10090800AE01363084318F2484314001AE01373056
:1009180084318F2408004001B2000230AF002F0854
:10092800B300A701A70A3208AF00B0012F08A8003A
:100938003008A9003330B1003108AA002E308431C4
:1009480029248431023040013306031D0800A62CF7
:100958004001A4002408860087012008C03F210820
:10096800C13F2208A3002408023E8600870123080D
:1009780081002408033E8600870181012408053E82
:1009880086008701810108005E304001A000200830
:10099800C3005E30A0002008C200C4144410C60181
:1009A80043018F0128309000920150308D004E0194
:1009B8000F108F101914991408008531832584317C
:1009C8008B170B178431702484318531C825843105
:1009D8008331252384318531C025843181317F21BC
:1009E80084318231E6228431F22CF700430111155B
:1009F8007008023E86008701010803190E2D77084A
:100A0800F6007008023E860087010108860087010B
:100A180076088100F301080002304001640663048F
:100A2800031D1B2D0130E3000030E4001F2D0130B1
:100A3800E3070030E43D6408B8006308B700833179
:100A480064230800400163036404031D302D003053
:100A5800E3000230E400342D0130E3020030E43BCF
:100A68006408B8006308B700833164230800453080
:100A78004B019F00F9309D009C014E018C12961687
:100A8800F1304001A0000530A1008531D625803025
:100A98004B019E0008004001A0002008053E86008A
:100AA80087010103031D5F2D2008053E860087018D
:100AB800810101300800003008004001B600340808
:100AC800213E840082300318013E85000008B500ED
:100AD8003508AE003608343E84318F2408000430CF
:100AE800F6007608F1070130F202031D802D04306C
:100AF800F6007608F3000800F301F30A08008531D0
:100B0800AD2585318331FE2385318531B725853182
:100B18008431C824853185313B2508004001A00077
:100B28002008053E8600870102300106031D9E2D20
:100B380001300800003008004E018C1240016108A5
:100B480062040319080062088A0061080A008531F6
:100B580008004F0196019701980199019A019B019C
:100B68009C019D010800603051018D008F019101A9
:100B7800063093009201080040016408B800630839
:100B8800B700833164230800E2304001A00005303B
:100B9800A1008531D6250800640080010131890B48
:100BA800D12D003440012108E2002008E1000800AE
:100BB80040014C08A1004B08A0000800013040018A
:100BC800CB070030CC3D0800730803190800E82D56
:0C0BD8004E018F100800013400340800AA
:020000040001F9
:0A000E00EC3FFF3F9F3FFF3FFF3F25
:00000001FF
